:060000000A128A11EB2F29
:100D12008316031386018801C030870020309800B3
:100D2200093099009030831203139800080054345C
:100D32007834203444344134543441343A345234D3
:100D42007834203444344134543441343A34F20057
:100D5200831203138615720888008614FD308605F7
:100D62001430F1007930F000F00BB52EF10BB52EF6
:100D7200BA2E08007E088A007F0882000A128A11B1
:100D8200BB260A128A118000840A04087D06031910
:100D92000034FF0A0319FE0ABF2EF200F730831255
:100DA20003138605720888008614FD308605143008
:100DB200F1007930F000F00BDC2EF10BDC2EE12E8D
:100DC200080030300A128A11CE260A128A11C33064
:100DD200F400CD30F300F30BEC2EF40BEC2E30309C
:100DE2000A128A11CE260A128A11C330F400CD30BB
:100DF200F300F30BFA2EF40BFA2E30300A128A119A
:100E0200CE260A128A11C330F400CD30F300F30B60
:100E1200082FF40B082F38300A128A11CE260A1234
:100E22008A11C330F400CD30F300F30B162FF40B0C
:100E3200162F0C300A128A11CE260A128A11C330DA
:100E4200F400CD30F300F30B242FF40B242F0130E8
:100E52000A128A11CE260A128A11C330F400CD304A
:100E6200F300F30B322FF40B322F08000A128A110F
:100E720089260A128A110A128A11E2260A128A1194
:100E820080300A128A11CE260A128A11F7017708D7
:100E9200283E8400831300080A128A11A8260A1227
:100EA2008A110130F70708307702031C592F5A2F95
:100EB200482FC0300A128A11CE260A128A11F7016F
:100EC2007708203E8400831300080A128A11A8269C
:100ED2000A128A110130F70708307702031C722FB9
:100EE200732F612F831203138C1E782F792F732F88
:100EF2001A08F90088300A128A11CE260A128A11BB
:100F020079080A128A11A8260A128A11C8300A120E
:100F12008A11CE260A128A11DA2F61308312031344
:100F22009900C330F600CD30F500F50B962FF60B85
:100F3200962F61300A128A11A8260A128A11732F7B
:100F42006230831203139900C330F600CD30F500EE
:100F5200F50BA92FF60BA92F62300A128A11A826C7
:100F62000A128A11732F6330831203139900C3305C
:100F7200F600CD30F500F50BBC2FF60BBC2F63301D
:100F82000A128A11A8260A128A11732F6430831258
:100F920003139900C330F600CD30F500F50BCF2FC7
:100FA200F60BCF2F64300A128A11A8260A128A1170
:100FB200732F7908413A03198E2F033A0319A12F8F
:100FC200013A0319B42F073A0319C72F732F0A12D4
:100FD2008A11002883133030FD000630FE0098305D
:100FE200FF00203084000A128A11BF260A128A11D9
:0E0FF200F701F801F90183010A128A11372F65
:02400E003B3F36
:00000001FF
