:060000000A128A11FB2F19
:100F2600F0308316031386008801831203138601AB
:100F36007F30831603138105C03087002030980068
:100F460009309900903083120313980008000A12A2
:100F56008A1193270A128A11831203130608F200D4
:100F6600C82F41309900C330F100CD30F000F00BAE
:100F7600BA2FF10BBA2FD62F42309900B62F433035
:100F86009900B62F44309900B62F7208703A0319AB
:100F9600C52FC03A0319C22F603A0319BF2F303A42
:100FA6000319B42FD62F831203138C1EDB2FDC2FCD
:100FB600AF2F1A08F300EA2F40308800AF2F023017
:100FC6008800AF2F8801AF2F42308800AF2F7308FB
:100FD600613A0319DF2F033A0319E22F013A031985
:100FE600E52F073A0319E72FAF2F0A128A110028B7
:0A0FF600F30183010A128A11AA2FE9
:02400E003B3F36
:00000001FF
